{
  "contractName": "Auction",
  "abi": [
    {
      "inputs": [
        {
          "internalType": "address",
          "name": "initialOwner",
          "type": "address"
        }
      ],
      "stateMutability": "nonpayable",
      "type": "constructor"
    },
    {
      "inputs": [],
      "name": "AuctionHasExpired",
      "type": "error"
    },
    {
      "inputs": [],
      "name": "InvalidAmount",
      "type": "error"
    },
    {
      "inputs": [],
      "name": "NotPostSeller",
      "type": "error"
    },
    {
      "inputs": [],
      "name": "NotSellerPermission",
      "type": "error"
    },
    {
      "inputs": [],
      "name": "NotbuyerrPermission",
      "type": "error"
    },
    {
      "inputs": [
        {
          "internalType": "address",
          "name": "owner",
          "type": "address"
        }
      ],
      "name": "OwnableInvalidOwner",
      "type": "error"
    },
    {
      "inputs": [
        {
          "internalType": "address",
          "name": "account",
          "type": "address"
        }
      ],
      "name": "OwnableUnauthorizedAccount",
      "type": "error"
    },
    {
      "inputs": [],
      "name": "PostMinBid",
      "type": "error"
    },
    {
      "anonymous": false,
      "inputs": [
        {
          "indexed": true,
          "internalType": "address",
          "name": "previousOwner",
          "type": "address"
        },
        {
          "indexed": true,
          "internalType": "address",
          "name": "newOwner",
          "type": "address"
        }
      ],
      "name": "OwnershipTransferred",
      "type": "event"
    },
    {
      "anonymous": false,
      "inputs": [
        {
          "indexed": true,
          "internalType": "address",
          "name": "buyer",
          "type": "address"
        },
        {
          "indexed": false,
          "internalType": "uint256",
          "name": "amount",
          "type": "uint256"
        },
        {
          "indexed": false,
          "internalType": "uint256",
          "name": "blockNumber",
          "type": "uint256"
        },
        {
          "indexed": false,
          "internalType": "bool",
          "name": "isFinished",
          "type": "bool"
        }
      ],
      "name": "bidEvent",
      "type": "event"
    },
    {
      "anonymous": false,
      "inputs": [
        {
          "indexed": true,
          "internalType": "address",
          "name": "seller",
          "type": "address"
        },
        {
          "indexed": false,
          "internalType": "uint256",
          "name": "minBid",
          "type": "uint256"
        },
        {
          "indexed": false,
          "internalType": "string",
          "name": "name",
          "type": "string"
        },
        {
          "indexed": false,
          "internalType": "string",
          "name": "hashCode",
          "type": "string"
        }
      ],
      "name": "postEvent",
      "type": "event"
    },
    {
      "inputs": [],
      "name": "owner",
      "outputs": [
        {
          "internalType": "address",
          "name": "",
          "type": "address"
        }
      ],
      "stateMutability": "view",
      "type": "function",
      "constant": true
    },
    {
      "inputs": [],
      "name": "renounceOwnership",
      "outputs": [],
      "stateMutability": "nonpayable",
      "type": "function"
    },
    {
      "inputs": [
        {
          "internalType": "address",
          "name": "newOwner",
          "type": "address"
        }
      ],
      "name": "transferOwnership",
      "outputs": [],
      "stateMutability": "nonpayable",
      "type": "function"
    },
    {
      "inputs": [],
      "name": "getOwnerContract",
      "outputs": [
        {
          "internalType": "address",
          "name": "",
          "type": "address"
        }
      ],
      "stateMutability": "view",
      "type": "function",
      "constant": true
    },
    {
      "inputs": [
        {
          "internalType": "address",
          "name": "_addr",
          "type": "address"
        }
      ],
      "name": "getBalance",
      "outputs": [
        {
          "internalType": "uint256",
          "name": "",
          "type": "uint256"
        }
      ],
      "stateMutability": "view",
      "type": "function",
      "constant": true
    },
    {
      "inputs": [],
      "name": "getBalanceContract",
      "outputs": [
        {
          "internalType": "uint256",
          "name": "",
          "type": "uint256"
        }
      ],
      "stateMutability": "view",
      "type": "function",
      "constant": true
    },
    {
      "inputs": [
        {
          "internalType": "uint256",
          "name": "_minBid",
          "type": "uint256"
        },
        {
          "internalType": "string",
          "name": "_name",
          "type": "string"
        },
        {
          "internalType": "string",
          "name": "_hashCode",
          "type": "string"
        }
      ],
      "name": "createPost",
      "outputs": [
        {
          "internalType": "bool",
          "name": "",
          "type": "bool"
        }
      ],
      "stateMutability": "nonpayable",
      "type": "function"
    },
    {
      "inputs": [],
      "name": "getPosts",
      "outputs": [
        {
          "components": [
            {
              "internalType": "address payable",
              "name": "seller",
              "type": "address"
            },
            {
              "internalType": "uint256",
              "name": "minBid",
              "type": "uint256"
            },
            {
              "internalType": "string",
              "name": "name",
              "type": "string"
            },
            {
              "internalType": "string",
              "name": "hashCode",
              "type": "string"
            }
          ],
          "internalType": "struct Auction.Post[]",
          "name": "",
          "type": "tuple[]"
        }
      ],
      "stateMutability": "view",
      "type": "function",
      "constant": true
    },
    {
      "inputs": [
        {
          "internalType": "uint256",
          "name": "_id",
          "type": "uint256"
        }
      ],
      "name": "getPostsId",
      "outputs": [
        {
          "components": [
            {
              "internalType": "address payable",
              "name": "seller",
              "type": "address"
            },
            {
              "internalType": "uint256",
              "name": "minBid",
              "type": "uint256"
            },
            {
              "internalType": "string",
              "name": "name",
              "type": "string"
            },
            {
              "internalType": "string",
              "name": "hashCode",
              "type": "string"
            }
          ],
          "internalType": "struct Auction.Post",
          "name": "",
          "type": "tuple"
        }
      ],
      "stateMutability": "view",
      "type": "function",
      "constant": true
    },
    {
      "inputs": [],
      "name": "getLengthPosts",
      "outputs": [
        {
          "internalType": "uint256",
          "name": "",
          "type": "uint256"
        }
      ],
      "stateMutability": "view",
      "type": "function",
      "constant": true
    },
    {
      "inputs": [],
      "name": "getSender",
      "outputs": [
        {
          "internalType": "address",
          "name": "",
          "type": "address"
        }
      ],
      "stateMutability": "view",
      "type": "function",
      "constant": true
    },
    {
      "inputs": [
        {
          "internalType": "uint256",
          "name": "_postId",
          "type": "uint256"
        }
      ],
      "name": "createBid",
      "outputs": [],
      "stateMutability": "payable",
      "type": "function",
      "payable": true
    },
    {
      "inputs": [
        {
          "internalType": "uint256",
          "name": "_id",
          "type": "uint256"
        }
      ],
      "name": "getBids",
      "outputs": [
        {
          "components": [
            {
              "internalType": "address payable",
              "name": "buyer",
              "type": "address"
            },
            {
              "internalType": "uint256",
              "name": "amount",
              "type": "uint256"
            },
            {
              "internalType": "uint256",
              "name": "blockNumber",
              "type": "uint256"
            },
            {
              "internalType": "bool",
              "name": "isFinished",
              "type": "bool"
            }
          ],
          "internalType": "struct Auction.Bid[]",
          "name": "",
          "type": "tuple[]"
        }
      ],
      "stateMutability": "view",
      "type": "function",
      "constant": true
    },
    {
      "inputs": [
        {
          "internalType": "uint256",
          "name": "_postId",
          "type": "uint256"
        },
        {
          "internalType": "uint256",
          "name": "_bidId",
          "type": "uint256"
        }
      ],
      "name": "getPostBid",
      "outputs": [
        {
          "internalType": "address",
          "name": "buyer",
          "type": "address"
        },
        {
          "internalType": "uint256",
          "name": "amount",
          "type": "uint256"
        },
        {
          "internalType": "uint256",
          "name": "time",
          "type": "uint256"
        }
      ],
      "stateMutability": "view",
      "type": "function",
      "constant": true
    },
    {
      "inputs": [
        {
          "internalType": "uint256",
          "name": "_postId",
          "type": "uint256"
        }
      ],
      "name": "totalBids",
      "outputs": [
        {
          "internalType": "uint256",
          "name": "",
          "type": "uint256"
        }
      ],
      "stateMutability": "view",
      "type": "function",
      "constant": true
    },
    {
      "inputs": [
        {
          "internalType": "uint256",
          "name": "_postId",
          "type": "uint256"
        },
        {
          "internalType": "uint256",
          "name": "_bidId",
          "type": "uint256"
        }
      ],
      "name": "accepteBid",
      "outputs": [],
      "stateMutability": "payable",
      "type": "function",
      "payable": true
    },
    {
      "inputs": [
        {
          "internalType": "uint256",
          "name": "_postId",
          "type": "uint256"
        },
        {
          "internalType": "uint256",
          "name": "_bidId",
          "type": "uint256"
        }
      ],
      "name": "cancelBid",
      "outputs": [],
      "stateMutability": "payable",
      "type": "function",
      "payable": true
    }
  ],
  "bytecode": "0x608060405234801561001057600080fd5b5060405161184938038061184983398101604081905261002f916100be565b806001600160a01b03811661005e57604051631e4fbdf760e01b81526000600482015260240160405180910390fd5b6100678161006e565b50506100ee565b600080546001600160a01b038381166001600160a01b0319831681178455604051919092169283917f8be0079c531659141344cd1fd0a4f28419497f9722a3daafe3b4186f6b6457e09190a35050565b6000602082840312156100d057600080fd5b81516001600160a01b03811681146100e757600080fd5b9392505050565b61174c806100fd6000396000f3fe6080604052600436106100fe5760003560e01c8063659dd2b4116100955780638da5cb5b116100645780638da5cb5b146102675780639b54091514610285578063e135268d146102b2578063f2fde38b146102f7578063f8b2cb4f1461031757600080fd5b8063659dd2b41461022a57806366bd78fd1461023d578063715018a614610252578063813239111461026757600080fd5b80634b393605116100d15780634b393605146101ab5780634e9b4739146101be5780635e01eb5a146101ee57806361031cd11461021557600080fd5b8063131d9a271461010357806328e3d190146101395780632a75e74f1461017457806341f3004a14610189575b600080fd5b34801561010f57600080fd5b5061012361011e36600461124c565b61034d565b6040516101309190611265565b60405180910390f35b34801561014557600080fd5b5061016661015436600461124c565b60009081526002602052604090205490565b604051908152602001610130565b6101876101823660046112d4565b6103ef565b005b34801561019557600080fd5b5061019e61068e565b604051610130919061138f565b6101876101b93660046112d4565b610831565b3480156101ca57600080fd5b506101de6101d9366004611494565b610933565b6040519015158152602001610130565b3480156101fa57600080fd5b50335b6040516001600160a01b039091168152602001610130565b34801561022157600080fd5b50600154610166565b61018761023836600461124c565b610a69565b34801561024957600080fd5b50610166610d5b565b34801561025e57600080fd5b50610187610d6a565b34801561027357600080fd5b506000546001600160a01b03166101fd565b34801561029157600080fd5b506102a56102a036600461124c565b610d7e565b6040516101309190611501565b3480156102be57600080fd5b506102d26102cd3660046112d4565b610f42565b604080516001600160a01b039094168452602084019290925290820152606001610130565b34801561030357600080fd5b5061018761031236600461151b565b61118c565b34801561032357600080fd5b5061016661033236600461151b565b6001600160a01b031660009081526003602052604090205490565b606060026000838152602001908152602001600020805480602002602001604051908101604052809291908181526020016000905b828210156103e4576000848152602090819020604080516080810182526004860290920180546001600160a01b03168352600180820154848601526002820154928401929092526003015460ff16151560608301529083529092019101610382565b505050509050919050565b60006001838154811061040457610404611544565b90600052602060002090600402016040518060800160405290816000820160009054906101000a90046001600160a01b03166001600160a01b03166001600160a01b03168152602001600182015481526020016002820180546104669061155a565b80601f01602080910402602001604051908101604052809291908181526020018280546104929061155a565b80156104df5780601f106104b4576101008083540402835291602001916104df565b820191906000526020600020905b8154815290600101906020018083116104c257829003601f168201915b505050505081526020016003820180546104f89061155a565b80601f01602080910402602001604051908101604052809291908181526020018280546105249061155a565b80156105715780601f1061054657610100808354040283529160200191610571565b820191906000526020600020905b81548152906001019060200180831161055457829003601f168201915b505050505081525050905060006002600085815260200190815260200160002083815481106105a2576105a2611544565b9060005260206000209060040201905081600001516001600160a01b0316336001600160a01b0316146105e8576040516337db4bc560e21b815260040160405180910390fd5b600381015460ff161561060e57604051630a84a9e760e21b815260040160405180910390fd5b6003808201805460ff19166001908117909155820180546000918290553082526020929092526040812080548392906106489084906115aa565b909155505082516040516001600160a01b039091169082156108fc029083906000818181858888f19350505050158015610686573d6000803e3d6000fd5b505050505050565b60606001805480602002602001604051908101604052809291908181526020016000905b82821015610828576000848152602090819020604080516080810182526004860290920180546001600160a01b03168352600181015493830193909352600283018054929392918401916107059061155a565b80601f01602080910402602001604051908101604052809291908181526020018280546107319061155a565b801561077e5780601f106107535761010080835404028352916020019161077e565b820191906000526020600020905b81548152906001019060200180831161076157829003601f168201915b505050505081526020016003820180546107979061155a565b80601f01602080910402602001604051908101604052809291908181526020018280546107c39061155a565b80156108105780601f106107e557610100808354040283529160200191610810565b820191906000526020600020905b8154815290600101906020018083116107f357829003601f168201915b505050505081525050815260200190600101906106b2565b50505050905090565b600082815260026020526040812080548390811061085157610851611544565b6000918252602090912060049091020180549091506001600160a01b0316331461088e57604051635de15c1b60e11b815260040160405180910390fd5b600381015460ff16156108b457604051630a84a9e760e21b815260040160405180910390fd5b6003808201805460ff19166001908117909155820180546000918290553082526020929092526040812080548392906108ee9084906115aa565b909155505081546040516001600160a01b039091169082156108fc029083906000818181858888f1935050505015801561092c573d6000803e3d6000fd5b5050505050565b604080516080810182523381526020810185815291810184815260608201849052600180548082018255600091825283517fb10e2d527612073b26eecdfd717e6a320cf44b4afac2b0732d9fcbe2b7fa0cf6600490920291820180546001600160a01b0319166001600160a01b0390921691909117815594517fb10e2d527612073b26eecdfd717e6a320cf44b4afac2b0732d9fcbe2b7fa0cf782015591519093917fb10e2d527612073b26eecdfd717e6a320cf44b4afac2b0732d9fcbe2b7fa0cf80190610a02908261160e565b5060608201516003820190610a17908261160e565b505050336001600160a01b03167f6682523b98a1667f4f4cba08a7c6ae6c89c6b8a2039fbab1dc779afab579b0cf858585604051610a57939291906116ce565b60405180910390a25060019392505050565b600060018281548110610a7e57610a7e611544565b90600052602060002090600402016040518060800160405290816000820160009054906101000a90046001600160a01b03166001600160a01b03166001600160a01b0316815260200160018201548152602001600282018054610ae09061155a565b80601f0160208091040260200160405190810160405280929190818152602001828054610b0c9061155a565b8015610b595780601f10610b2e57610100808354040283529160200191610b59565b820191906000526020600020905b815481529060010190602001808311610b3c57829003601f168201915b50505050508152602001600382018054610b729061155a565b80601f0160208091040260200160405190810160405280929190818152602001828054610b9e9061155a565b8015610beb5780601f10610bc057610100808354040283529160200191610beb565b820191906000526020600020905b815481529060010190602001808311610bce57829003601f168201915b5050509190925250508151919250506001600160a01b03163303610c22576040516304173de360e41b815260040160405180910390fd5b34600003610c435760405163162908e360e11b815260040160405180910390fd5b8060200151341015610c68576040516378c50ebf60e01b815260040160405180910390fd5b60008281526002602081815260408084208151608081018352338152348185018181524383860190815260608401898152855460018082018855968b52888b209551600490910290950180546001600160a01b0319166001600160a01b0390961695909517855591519484019490945592519582019590955590516003918201805460ff19169115159190911790553085529091528220805491929091610d10908490611703565b909155505060408051348152436020820152600081830152905133917f7881cc81c18a9007b4ecd521901c22849f4d6f9330bb84870bf36c92658fd50c919081900360600190a25050565b6000610d656111cf565b504790565b610d726111cf565b610d7c60006111fc565b565b610db2604051806080016040528060006001600160a01b031681526020016000815260200160608152602001606081525090565b60018281548110610dc557610dc5611544565b90600052602060002090600402016040518060800160405290816000820160009054906101000a90046001600160a01b03166001600160a01b03166001600160a01b0316815260200160018201548152602001600282018054610e279061155a565b80601f0160208091040260200160405190810160405280929190818152602001828054610e539061155a565b8015610ea05780601f10610e7557610100808354040283529160200191610ea0565b820191906000526020600020905b815481529060010190602001808311610e8357829003601f168201915b50505050508152602001600382018054610eb99061155a565b80601f0160208091040260200160405190810160405280929190818152602001828054610ee59061155a565b8015610f325780601f10610f0757610100808354040283529160200191610f32565b820191906000526020600020905b815481529060010190602001808311610f1557829003601f168201915b5050505050815250509050919050565b60008060008060018681548110610f5b57610f5b611544565b90600052602060002090600402016040518060800160405290816000820160009054906101000a90046001600160a01b03166001600160a01b03166001600160a01b0316815260200160018201548152602001600282018054610fbd9061155a565b80601f0160208091040260200160405190810160405280929190818152602001828054610fe99061155a565b80156110365780601f1061100b57610100808354040283529160200191611036565b820191906000526020600020905b81548152906001019060200180831161101957829003601f168201915b5050505050815260200160038201805461104f9061155a565b80601f016020809104026020016040519081016040528092919081815260200182805461107b9061155a565b80156110c85780601f1061109d576101008083540402835291602001916110c8565b820191906000526020600020905b8154815290600101906020018083116110ab57829003601f168201915b505050505081525050905060006002600088815260200190815260200160002086815481106110f9576110f9611544565b600091825260209182902060408051608081018252600490930290910180546001600160a01b0390811684526001820154948401949094526002810154918301919091526003015460ff1615156060820152835190925033911614611171576040516337db4bc560e21b815260040160405180910390fd5b80516020820151604090920151909891975095509350505050565b6111946111cf565b6001600160a01b0381166111c357604051631e4fbdf760e01b8152600060048201526024015b60405180910390fd5b6111cc816111fc565b50565b6000546001600160a01b03163314610d7c5760405163118cdaa760e01b81523360048201526024016111ba565b600080546001600160a01b038381166001600160a01b0319831681178455604051919092169283917f8be0079c531659141344cd1fd0a4f28419497f9722a3daafe3b4186f6b6457e09190a35050565b60006020828403121561125e57600080fd5b5035919050565b602080825282518282018190526000919060409081850190868401855b828110156112c757815180516001600160a01b031685528681015187860152858101518686015260609081015115159085015260809093019290850190600101611282565b5091979650505050505050565b600080604083850312156112e757600080fd5b50508035926020909101359150565b6000815180845260005b8181101561131c57602081850181015186830182015201611300565b506000602082860101526020601f19601f83011685010191505092915050565b60018060a01b03815116825260208101516020830152600060408201516080604085015261136d60808501826112f6565b90506060830151848203606086015261138682826112f6565b95945050505050565b6000602080830181845280855180835260408601915060408160051b870101925083870160005b828110156113e457603f198886030184526113d285835161133c565b945092850192908501906001016113b6565b5092979650505050505050565b634e487b7160e01b600052604160045260246000fd5b600082601f83011261141857600080fd5b813567ffffffffffffffff80821115611433576114336113f1565b604051601f8301601f19908116603f0116810190828211818310171561145b5761145b6113f1565b8160405283815286602085880101111561147457600080fd5b836020870160208301376000602085830101528094505050505092915050565b6000806000606084860312156114a957600080fd5b83359250602084013567ffffffffffffffff808211156114c857600080fd5b6114d487838801611407565b935060408601359150808211156114ea57600080fd5b506114f786828701611407565b9150509250925092565b602081526000611514602083018461133c565b9392505050565b60006020828403121561152d57600080fd5b81356001600160a01b038116811461151457600080fd5b634e487b7160e01b600052603260045260246000fd5b600181811c9082168061156e57607f821691505b60208210810361158e57634e487b7160e01b600052602260045260246000fd5b50919050565b634e487b7160e01b600052601160045260246000fd5b818103818111156115bd576115bd611594565b92915050565b601f82111561160957600081815260208120601f850160051c810160208610156115ea5750805b601f850160051c820191505b81811015610686578281556001016115f6565b505050565b815167ffffffffffffffff811115611628576116286113f1565b61163c81611636845461155a565b846115c3565b602080601f83116001811461167157600084156116595750858301515b600019600386901b1c1916600185901b178555610686565b600085815260208120601f198616915b828110156116a057888601518255948401946001909101908401611681565b50858210156116be5787850151600019600388901b60f8161c191681555b5050505050600190811b01905550565b8381526060602082015260006116e760608301856112f6565b82810360408401526116f981856112f6565b9695505050505050565b808201808211156115bd576115bd61159456fea26469706673582212209925b18c771901958349de03df208d2a3e9db5c321fe480cfb6595c516dbbd3464736f6c63430008130033",
  "immutableReferences": {},
  "source": "// SPDX-License-Identifier:MIT\npragma solidity ^0.8.0;\n\nimport {Context} from \"./Context.sol\";\nimport {Ownable} from \"./Ownable.sol\";\n\nerror NotPostSeller();\nerror InvalidAmount();\nerror PostMinBid();\nerror NotSellerPermission();\nerror AuctionHasExpired();\nerror BidHasExpired();\nerror NotbuyerrPermission();\n\n/**\n * @title Auction Contract\n * @dev This contract implements a simple auction system with the ability to create posts and place bids.\n */\n\ncontract Auction is Ownable {\n    constructor(address initialOwner) Ownable(initialOwner) {}\n\n    //*********** Declare Struct **************\n    struct Post {\n        address payable seller;\n        uint256 minBid;\n        string name;\n        string hashCode;\n    }\n\n    struct Bid {\n        address payable buyer;\n        uint256 amount;\n        uint256 blockNumber;\n        bool isFinished;\n    }\n    //*********** Declare Event **************\n    event postEvent(\n        address indexed seller,\n        uint256 minBid,\n        string name,\n        string hashCode\n    );\n\n    event bidEvent(\n        address indexed buyer,\n        uint256 amount,\n        uint256 blockNumber,\n        bool isFinished\n    );\n    //*********** Declare Array And Mapping **************\n\n    Post[] posts;\n    mapping(uint256 => Bid[]) bids;\n    mapping(address => uint256) balances;\n\n    //*********** Declare Functions **************\n\n    /**\n     * @dev Returns the owner of the contract.\n     * @return The address of the contract owner.\n     */\n    function getOwnerContract() public view returns (address) {\n        return owner();\n    }\n\n    /**\n     * @dev Returns the balance of a specific address.\n     * @param _addr The address to check the balance for.\n     * @return The balance of the specified address.\n     */\n    function getBalance(address _addr) public view returns (uint256) {\n        return balances[_addr];\n    }\n\n    /**\n     * @dev Returns the balance of the contract.\n     * @return The balance of the contract.\n     */\n    function getBalanceContract() external view onlyOwner returns (uint256) {\n        return address(this).balance;\n    }\n\n    /**\n     * @dev Creates a new post with details provided by the user.\n     * @param _minBid The minimum bid required for the post.\n     * @param _name The name of the post.\n     * @param _hashCode The IPFS hash code associated with the image stored in IPFS.\n     * @return A boolean indicating the success of the operation.\n     */\n    function createPost(\n        uint256 _minBid,\n        string memory _name,\n        string memory _hashCode\n    ) public returns (bool) {\n        posts.push(Post(payable(msg.sender), _minBid, _name, _hashCode));\n        emit postEvent(payable(msg.sender), _minBid, _name, _hashCode);\n        return true;\n    }\n\n    /**\n     * @dev Returns an array of all posts.\n     * @return An array of Post structures representing all posts.\n     */\n    function getPosts() public view returns (Post[] memory) {\n        return posts;\n    }\n\n    /**\n     * @dev Returns a specific post by its ID.\n     * @param _id The ID of the post to retrieve.\n     * @return A Post structure representing the specified post.\n     */\n    function getPostsId(uint256 _id) public view returns (Post memory) {\n        return posts[_id];\n    }\n\n    /**\n     * @dev Returns the number of posts.\n     * @return The number of posts.\n     */\n    function getLengthPosts() public view returns (uint256) {\n        return posts.length;\n    }\n\n    /**\n     * @dev Returns the sender's address.\n     * @return The address of the sender.\n     */\n    function getSender() public view returns (address) {\n        return Context._msgSender();\n    }\n\n    //*********** Bid **************\n\n    /**\n     * @dev Creates a bid for a specific post.\n     * @param _postId The ID of the post to place a bid on.\n     */\n    function createBid(uint256 _postId) public payable {\n        Post memory post = posts[_postId];\n        if (msg.sender == post.seller) revert NotPostSeller();\n        if (msg.value == 0) revert InvalidAmount();\n        if (msg.value < post.minBid) revert PostMinBid();\n        bids[_postId].push(\n            Bid(payable(msg.sender), msg.value, block.number, false)\n        );\n        balances[address(this)] += msg.value;\n        emit bidEvent(payable(msg.sender), msg.value, block.number, false);\n    }\n\n    /**\n     * @dev Returns an array of bids for a specific post.\n     * @param _id The ID of the post to retrieve bids for.\n     * @return An array of Bid structures representing all bids for the specified post.\n     */\n    function getBids(uint256 _id) public view returns (Bid[] memory) {\n        return bids[_id];\n    }\n\n    /**\n     * @dev Returns information about a specific bid for a post.\n     * @param _postId The ID of the post.\n     * @param _bidId The ID of the bid.\n     * @return buyer The address of the buyer.\n     * @return amount The bid amount.\n     * @return time The block number when the bid was placed.\n     */\n    function getPostBid(uint256 _postId, uint256 _bidId)\n        public\n        view\n        returns (\n            address buyer,\n            uint256 amount,\n            uint256 time\n        )\n    {\n        Post memory post = posts[_postId];\n        Bid memory bid = bids[_postId][_bidId];\n        if (msg.sender != post.seller) revert NotSellerPermission();\n        return (bid.buyer, bid.amount, bid.blockNumber);\n    }\n\n    /**\n     * @dev Returns the total number of bids for a specific post.\n     * @param _postId The ID of the post.\n     * @return The total number of bids for the specified post.\n     */\n    function totalBids(uint256 _postId) public view returns (uint256) {\n        return bids[_postId].length;\n    }\n\n    /**\n     * @dev Accepts a bid for a specific post.\n     * @param _postId The ID of the post.\n     * @param _bidId The ID of the bid to accept.\n     */\n    function accepteBid(uint256 _postId, uint256 _bidId) public payable {\n        Post memory post = posts[_postId];\n        Bid storage bid = bids[_postId][_bidId];\n        if (msg.sender != post.seller) revert NotSellerPermission();\n        if (bid.isFinished != false) revert AuctionHasExpired();\n        bid.isFinished = true;\n        uint256 payment = bid.amount;\n        bid.amount = 0;\n        balances[address(this)] -= payment;\n        post.seller.transfer(payment);\n    }\n\n    /**\n     * @dev Cancels a bid for a specific post.\n     * @param _postId The ID of the post.\n     * @param _bidId The ID of the bid to cancel.\n     */\n    function cancelBid(uint256 _postId, uint256 _bidId) public payable {\n        Bid storage bid = bids[_postId][_bidId];\n        if (msg.sender != bid.buyer) revert NotbuyerrPermission();\n        if (bid.isFinished != false) revert AuctionHasExpired();\n        bid.isFinished = true;\n        uint256 payment = bid.amount;\n        bid.amount = 0;\n        balances[address(this)] -= payment;\n        bid.buyer.transfer(payment);\n    }\n}\n",
  "sourcePath": "D:\\Projects\\Web Design Me\\Blockchain Project\\7-auction new\\auction\\contracts\\Auction.sol",
  "compiler": {
    "name": "solc",
    "version": "0.8.19+commit.7dd6d404.Emscripten.clang"
  },
  "schemaVersion": "3.4.16",
  "updatedAt": "2023-12-22T17:47:57.935Z",
  "networkType": "ethereum",
  "devdoc": {
    "details": "This contract implements a simple auction system with the ability to create posts and place bids.",
    "errors": {
      "OwnableInvalidOwner(address)": [
        {
          "details": "The owner is not a valid owner account. (eg. `address(0)`)"
        }
      ],
      "OwnableUnauthorizedAccount(address)": [
        {
          "details": "The caller account is not authorized to perform an operation."
        }
      ]
    },
    "kind": "dev",
    "methods": {
      "accepteBid(uint256,uint256)": {
        "details": "Accepts a bid for a specific post.",
        "params": {
          "_bidId": "The ID of the bid to accept.",
          "_postId": "The ID of the post."
        }
      },
      "cancelBid(uint256,uint256)": {
        "details": "Cancels a bid for a specific post.",
        "params": {
          "_bidId": "The ID of the bid to cancel.",
          "_postId": "The ID of the post."
        }
      },
      "createBid(uint256)": {
        "details": "Creates a bid for a specific post.",
        "params": {
          "_postId": "The ID of the post to place a bid on."
        }
      },
      "createPost(uint256,string,string)": {
        "details": "Creates a new post with details provided by the user.",
        "params": {
          "_hashCode": "The IPFS hash code associated with the image stored in IPFS.",
          "_minBid": "The minimum bid required for the post.",
          "_name": "The name of the post."
        },
        "returns": {
          "_0": "A boolean indicating the success of the operation."
        }
      },
      "getBalance(address)": {
        "details": "Returns the balance of a specific address.",
        "params": {
          "_addr": "The address to check the balance for."
        },
        "returns": {
          "_0": "The balance of the specified address."
        }
      },
      "getBalanceContract()": {
        "details": "Returns the balance of the contract.",
        "returns": {
          "_0": "The balance of the contract."
        }
      },
      "getBids(uint256)": {
        "details": "Returns an array of bids for a specific post.",
        "params": {
          "_id": "The ID of the post to retrieve bids for."
        },
        "returns": {
          "_0": "An array of Bid structures representing all bids for the specified post."
        }
      },
      "getLengthPosts()": {
        "details": "Returns the number of posts.",
        "returns": {
          "_0": "The number of posts."
        }
      },
      "getOwnerContract()": {
        "details": "Returns the owner of the contract.",
        "returns": {
          "_0": "The address of the contract owner."
        }
      },
      "getPostBid(uint256,uint256)": {
        "details": "Returns information about a specific bid for a post.",
        "params": {
          "_bidId": "The ID of the bid.",
          "_postId": "The ID of the post."
        },
        "returns": {
          "amount": "The bid amount.",
          "buyer": "The address of the buyer.",
          "time": "The block number when the bid was placed."
        }
      },
      "getPosts()": {
        "details": "Returns an array of all posts.",
        "returns": {
          "_0": "An array of Post structures representing all posts."
        }
      },
      "getPostsId(uint256)": {
        "details": "Returns a specific post by its ID.",
        "params": {
          "_id": "The ID of the post to retrieve."
        },
        "returns": {
          "_0": "A Post structure representing the specified post."
        }
      },
      "getSender()": {
        "details": "Returns the sender's address.",
        "returns": {
          "_0": "The address of the sender."
        }
      },
      "owner()": {
        "details": "Returns the address of the current owner."
      },
      "renounceOwnership()": {
        "details": "Leaves the contract without owner. It will not be possible to call `onlyOwner` functions. Can only be called by the current owner. NOTE: Renouncing ownership will leave the contract without an owner, thereby disabling any functionality that is only available to the owner."
      },
      "totalBids(uint256)": {
        "details": "Returns the total number of bids for a specific post.",
        "params": {
          "_postId": "The ID of the post."
        },
        "returns": {
          "_0": "The total number of bids for the specified post."
        }
      },
      "transferOwnership(address)": {
        "details": "Transfers ownership of the contract to a new account (`newOwner`). Can only be called by the current owner."
      }
    },
    "title": "Auction Contract",
    "version": 1
  },
  "userdoc": {
    "kind": "user",
    "methods": {},
    "version": 1
  }
}